{"abi":[{"type":"constructor","inputs":[{"name":"_router","type":"address","internalType":"contract ISaucerSwapV1Router"}],"stateMutability":"nonpayable"},{"type":"receive","stateMutability":"payable"},{"type":"function","name":"associateTokens","inputs":[{"name":"tokens","type":"address[]","internalType":"address[]"}],"outputs":[],"stateMutability":"nonpayable"},{"type":"function","name":"router","inputs":[],"outputs":[{"name":"","type":"address","internalType":"contract ISaucerSwapV1Router"}],"stateMutability":"view"},{"type":"function","name":"zapIn","inputs":[{"name":"vaultAddress","type":"address","internalType":"address"},{"name":"tokenIn","type":"address","internalType":"address"},{"name":"amountIn","type":"uint256","internalType":"uint256"},{"name":"swapAmountOutMin","type":"uint256","internalType":"uint256"},{"name":"lpAmountOutMin","type":"uint256","internalType":"uint256"},{"name":"deadline","type":"uint256","internalType":"uint256"}],"outputs":[{"name":"shares","type":"uint256","internalType":"uint256"}],"stateMutability":"nonpayable"},{"type":"function","name":"zapInHBAR","inputs":[{"name":"vaultAddress","type":"address","internalType":"address"},{"name":"whbar","type":"address","internalType":"address"},{"name":"swapAmountOutMin","type":"uint256","internalType":"uint256"},{"name":"lpAmountOutMin","type":"uint256","internalType":"uint256"},{"name":"deadline","type":"uint256","internalType":"uint256"}],"outputs":[{"name":"shares","type":"uint256","internalType":"uint256"}],"stateMutability":"payable"},{"type":"function","name":"zapOutHBAR","inputs":[{"name":"vaultAddress","type":"address","internalType":"address"},{"name":"whbar","type":"address","internalType":"address"},{"name":"shares","type":"uint256","internalType":"uint256"},{"name":"swapAmountOutMin","type":"uint256","internalType":"uint256"},{"name":"amountOutMin","type":"uint256","internalType":"uint256"},{"name":"deadline","type":"uint256","internalType":"uint256"}],"outputs":[{"name":"hbarOut","type":"uint256","internalType":"uint256"}],"stateMutability":"nonpayable"},{"type":"event","name":"ZappedIn","inputs":[{"name":"user","type":"address","indexed":true,"internalType":"address"},{"name":"vault","type":"address","indexed":true,"internalType":"address"},{"name":"tokenIn","type":"address","indexed":false,"internalType":"address"},{"name":"amountIn","type":"uint256","indexed":false,"internalType":"uint256"},{"name":"lpMinted","type":"uint256","indexed":false,"internalType":"uint256"},{"name":"sharesMinted","type":"uint256","indexed":false,"internalType":"uint256"}],"anonymous":false},{"type":"event","name":"ZappedOut","inputs":[{"name":"user","type":"address","indexed":true,"internalType":"address"},{"name":"vault","type":"address","indexed":true,"internalType":"address"},{"name":"tokenOut","type":"address","indexed":false,"internalType":"address"},{"name":"sharesBurned","type":"uint256","indexed":false,"internalType":"uint256"},{"name":"amountOut","type":"uint256","indexed":false,"internalType":"uint256"}],"anonymous":false},{"type":"error","name":"ReentrancyGuardReentrantCall","inputs":[]},{"type":"error","name":"SafeERC20FailedOperation","inputs":[{"name":"token","type":"address","internalType":"address"}]}],"bytecode":{"object":"0x60a03461011e57601f611c6538819003918201601f19168301916001600160401b038311848410176101225780849260209460405283398101031261011e57516001600160a01b03811680820361011e5760017f9b779b17422d0df92223018b32b4d1fa46e071723d6817e2486d003becc55f0055156100d957608052604051611b2e90816101378239608051818181606a0152818161022d015281816102ce0152818161031e015281816103c7015281816109c601528181610a9001528181610af801528181610b4801528181610c0501526112310152f35b60405162461bcd60e51b815260206004820152601660248201527f496e76616c696420726f757465722061646472657373000000000000000000006044820152606490fd5b5f80fd5b634e487b7160e01b5f52604160045260245ffdfe6080604052600436101561001a575b3615610018575f80fd5b005b5f3560e01c80631cbc53901461110157806343ed152514610850578063a1d4da1514610703578063e97d61161461009d5763f887ea400361000e5734610099575f366003190112610099576040517f00000000000000000000000000000000000000000000000000000000000000006001600160a01b03168152602090f35b5f80fd5b34610099576100ab36611693565b6100b99592919493956119c1565b6100cd6001600160a01b038416151561171f565b85156106bf57604051635463173b60e11b81526020816004816001600160a01b0388165afa908115610522575f916106a0575b5060405162fc63d160e41b81526001600160a01b03919091169290602081600481875afa908115610522576004916020915f91610683575b50604051635f64b55b60e01b81526001600160a01b0391909116959092839182905afa908115610522575f91610664575b506001600160a01b03868116851494911690848015610652575b156106195761019d8930336001600160a01b038a16611a6e565b604051635d043b2960e11b8152600481018a905230602482018190526044820152946020866064815f6001600160a01b038c165af1958615610522575f966105e5575b50156105de57505b6040516338d52e0f60e01b81526020816004816001600160a01b038a165afa908115610522575f916105af575b5060405163095ea7b360e01b81526001600160a01b037f000000000000000000000000000000000000000000000000000000000000000081166004830152602482018790529091602091839160449183915f91165af18015610522576102c9956040928692610590575b508251629d473b60e21b81526001600160a01b038516600482015260248101919091525f60448201819052606482015230608482015260a4810191909152948590819060c4820190565b03815f7f00000000000000000000000000000000000000000000000000000000000000006001600160a01b03165af1938415610522575f9461055c575b5060405163095ea7b360e01b81526001600160a01b037f000000000000000000000000000000000000000000000000000000000000000081166004830152602482018690529093911691906020846044815f875af1908115610522575f946103c29261052d575b506040519361037b85611763565b6002855260403660208701376103908561180c565b526001600160a01b0388166103a48561182d565b526040516318cbafe560e01b81529586948594309260048701611988565b0381837f00000000000000000000000000000000000000000000000000000000000000006001600160a01b03165af1801561052257610500575b50479283106104bb575f80808086335af1610415611949565b501561047f57604080516001600160a01b03938416815260208181019690965290810184905291169033907f6e25341b62e52d839b36335f7b901c25a850cb53c6c99f6fd64b1d5aadae889690606090a360015f80516020611ad983398151915255604051908152f35b60405162461bcd60e51b815260206004820152601460248201527312109054881d1c985b9cd9995c8819985a5b195960621b6044820152606490fd5b60405162461bcd60e51b815260206004820152601f60248201527f536c6970706167653a20696e73756666696369656e742048424152206f7574006044820152606490fd5b61051b903d805f833e610513818361177f565b81019061183d565b50846103fc565b6040513d5f823e3d90fd5b61054e9060203d602011610555575b610546818361177f565b810190611916565b508a61036d565b503d61053c565b9093506040813d604011610588575b816105786040938361177f565b8101031261009957519288610306565b3d915061056b565b6105a89060203d60201161055557610546818361177f565b508b61027f565b6105d1915060203d6020116105d7575b6105c9818361177f565b8101906117a1565b89610215565b503d6105bf565b90506101e8565b9095506020813d602011610611575b816106016020938361177f565b810103126100995751948a6101e0565b3d91506105f4565b60405162461bcd60e51b81526020600482015260116024820152702ba42120a9103737ba1034b7103830b4b960791b6044820152606490fd5b506001600160a01b0387168214610183565b61067d915060203d6020116105d7576105c9818361177f565b88610169565b61069a9150823d84116105d7576105c9818361177f565b8a610138565b6106b9915060203d6020116105d7576105c9818361177f565b87610100565b606460405162461bcd60e51b815260206004820152602060248201527f536861726573206d7573742062652067726561746572207468616e207a65726f6044820152fd5b34610099576020806003193601126100995767ffffffffffffffff906004358281116100995736602382011215610099578060040135928311610099576024906005903660248660051b83010111610099575f5b85811061076057005b80831b82018401356001600160a01b03811690819003610099576040519063248a35ef60e11b825230600483015285820152604490868183815f6101675af1908115610522575f91610819575b5060070b6016811490811561080e575b50156107cc5750600101610757565b857f48545320746f6b656e206173736f63696174696f6e206661696c656400000000606492601c886040519462461bcd60e51b86526004860152840152820152fd5b6017915014886107bd565b90508681813d8311610849575b610830818361177f565b8101031261009957518060070b810361009957886107ad565b503d610826565b346100995761085e36611693565b9192949361086a6119c1565b61087e6001600160a01b038616151561171f565b6001600160a01b03169485156110bc576108998115156116d4565b6108a581303389611a6e565b6040519560c0870187811067ffffffffffffffff8211176110a85760405260018060a01b03861687526020870152604086015260608501928352608085015260a0840152604051635463173b60e11b815260208160048160018060a01b0387165afa908115610522575f91611089575b506001600160a01b031661092a8115156117c0565b60405162fc63d160e41b8152602081600481855afa908115610522576004916020915f9161106c575b50604051635f64b55b60e01b81526001600160a01b0391909116939092839182905afa908115610522575f9161104d575b5060208501516001600160a01b039182169116828103610ff257509050925b604081810151602080840151925163095ea7b360e01b8082526001600160a01b037f00000000000000000000000000000000000000000000000000000000000000008116600484015260019490941c602483018190529690949093919291839160449183915f91165af1801561052257610fd3575b505f60405191610a2783611763565b60028352604036602085013760208501516001600160a01b0316610a4a8461180c565b52610a548361182d565b6001600160a01b03891690525160a08501516040516338ed173960e01b81529384928392610a8b9290913091908b60048701611988565b0381837f00000000000000000000000000000000000000000000000000000000000000006001600160a01b03165af190811561052257610ae291610ad6915f91610fb9575b5061182d565b519360408401516118f5565b6020838101516040518481526001600160a01b037f00000000000000000000000000000000000000000000000000000000000000008116600483015260248201859052909291839160449183915f91165af1801561052257610f9a575b506040518281527f00000000000000000000000000000000000000000000000000000000000000006001600160a01b0316600482015260248101859052602081806044810103815f6001600160a01b038c165af1801561052257610f7b575b5060018060a01b036020840151169360a0840151916040519562e8e33760e81b8752600487015260018060a01b0388166024870152604486015260648501525f60848501525f60a48501523060c485015260e4840152606083610104815f60018060a01b037f0000000000000000000000000000000000000000000000000000000000000000165af1928315610522575f93610f47575b5060808201518310610f03576040516338d52e0f60e01b8152906020826004816001600160a01b0389165afa918215610522575f92610ee1575b506040519081526001600160a01b038581166004830152602482018590529091602091839160449183915f91165af1801561052257610ec2575b50604051636e553f6560e01b815260048101839052306024820152926020846044815f6001600160a01b0386165af1938415610522575f94610e8c575b50610cfd90849033906001600160a01b03166119f0565b6020818101516040516370a0823160e01b80825230600483015296929091829060249082906001600160a01b03165afa908115610522575f91610e5a575b506040519586523060048701526020866024816001600160a01b0386165afa908115610522575f91610e25575b6020965080610e06575b5080610deb575b505060018060a01b0381511691604060018060a01b0386840151169201516040519283528583015260408201528260608201527fdb11ef93c6cd8a3d4cb4ba2acd2301faa8ff17d1c1aa33727b675882b7f6d29d60803392a360015f80516020611ad983398151915255604051908152f35b610dff9133906001600160a01b03166119f0565b8480610d79565b83870151610e1f919033906001600160a01b03166119f0565b86610d72565b90506020863d602011610e52575b81610e406020938361177f565b81010312610099576020955190610d68565b3d9150610e33565b90506020813d602011610e84575b81610e756020938361177f565b81010312610099575186610d3b565b3d9150610e68565b9093506020813d602011610eba575b81610ea86020938361177f565b81010312610099575192610cfd610ce6565b3d9150610e9b565b610eda9060203d60201161055557610546818361177f565b5084610ca9565b6020919250610efc90823d84116105d7576105c9818361177f565b9190610c6f565b606460405162461bcd60e51b815260206004820152602060248201527f536c6970706167653a20696e73756666696369656e74204c5020746f6b656e736044820152fd5b610f6a91935060603d606011610f74575b610f62818361177f565b81019061192e565b9150509185610c35565b503d610f58565b610f939060203d60201161055557610546818361177f565b5086610b9e565b610fb29060203d60201161055557610546818361177f565b5086610b3f565b610fcd91503d805f833e610513818361177f565b88610ad0565b610feb9060203d60201161055557610546818361177f565b5086610a18565b03610ffd57926109a3565b60405162461bcd60e51b815260206004820152602260248201527f496e76616c696420696e70757420746f6b656e20666f72207661756c7420706160448201526134b960f11b6064820152608490fd5b611066915060203d6020116105d7576105c9818361177f565b85610984565b6110839150823d84116105d7576105c9818361177f565b87610953565b6110a2915060203d6020116105d7576105c9818361177f565b84610915565b634e487b7160e01b5f52604160045260245ffd5b60405162461bcd60e51b815260206004820152601760248201527f496e76616c696420746f6b656e496e20616464726573730000000000000000006044820152606490fd5b60a0366003190112610099576004356001600160a01b038082168083036100995760243590828216809203610099576084359261113c6119c1565b6111473415156116d4565b61115282151561171f565b604051635463173b60e11b8152602094908581600481875afa80156105225783915f91611676575b5016956111888715156117c0565b60405162fc63d160e41b815286816004818b5afa8015610522578488916004935f91611659575b50169860405192838092635f64b55b60e01b82525afa80156105225784915f9161163c575b501687861497888015611633575b156115ee5761127c959697985f146115e757505b3460011c926040519761120889611763565b600289526040368b8b013761121c8961180c565b526112268861182d565b978583168099525f867f0000000000000000000000000000000000000000000000000000000000000000169160405180998192637ff36ab560e01b835260443560048401526080602484015260848301906118b9565b306044830152856064830152038188855af1968715610522576112b3976112a9915f916115cd575061182d565b51968795346118f5565b60405163095ea7b360e01b8082526001600160a01b0384166004830152602482019790975293908b856044815f8f5af1988915610522578c6060966113449b6115af575b505060405163f305d71960e01b81526001600160a01b03909316600484015260248301525f60448301819052606483015230608483015260a48201939093529687928391829060c4820190565b03925af1938415610522575f9461158b575b506040516338d52e0f60e01b8152908782600481895afa908115610522576113b394899487945f94611568575b506040519081526001600160a01b039092166004830152602482019390935293849283915f919083906044820190565b0393165af180156105225761154b575b50604051636e553f6560e01b8152600481018290523360248201529284846044815f875af1938415610522575f9461151c575b5047806114c6575b506040516370a0823160e01b81523060048201528581602481855afa908115610522575f91611499575b5080611487575b5050604051905f8252348583015260408201528260608201527fdb11ef93c6cd8a3d4cb4ba2acd2301faa8ff17d1c1aa33727b675882b7f6d29d60803392a360015f80516020611ad983398151915255604051908152f35b6114929133906119f0565b848061142f565b90508581813d83116114bf575b6114b0818361177f565b81010312610099575186611428565b503d6114a6565b5f80808093335af16114d6611949565b50156114e257856113fe565b60405162461bcd60e51b815260048101869052601260248201527112109054881c99599d5b990819985a5b195960721b6044820152606490fd5b9093508481813d8311611544575b611534818361177f565b81010312610099575192856113f6565b503d61152a565b61156190853d871161055557610546818361177f565b50846113c3565b5f9291945061158390873d89116105d7576105c9818361177f565b939091611383565b6115a591945060603d606011610f7457610f62818361177f565b9150509287611356565b816115c592903d1061055557610546818361177f565b508c8e6112f7565b6115e191503d805f833e610513818361177f565b8c610ad0565b90506111f6565b60405162461bcd60e51b815260048101899052601760248201527f5748424152206e6f7420696e207661756c7420706169720000000000000000006044820152606490fd5b508187146111e2565b6116539150883d8a116105d7576105c9818361177f565b896111d4565b6116709150833d85116105d7576105c9818361177f565b8b6111af565b61168d9150873d89116105d7576105c9818361177f565b8861117a565b60c0906003190112610099576001600160a01b0390600435828116810361009957916024359081168103610099579060443590606435906084359060a43590565b156116db57565b606460405162461bcd60e51b815260206004820152602060248201527f416d6f756e74206d7573742062652067726561746572207468616e207a65726f6044820152fd5b1561172657565b60405162461bcd60e51b8152602060048201526015602482015274496e76616c6964207661756c74206164647265737360581b6044820152606490fd5b6060810190811067ffffffffffffffff8211176110a857604052565b90601f8019910116810190811067ffffffffffffffff8211176110a857604052565b9081602091031261009957516001600160a01b03811681036100995790565b156117c757565b60405162461bcd60e51b815260206004820152601860248201527f5374726174656779206e6f7420696e697469616c697a656400000000000000006044820152606490fd5b8051156118195760200190565b634e487b7160e01b5f52603260045260245ffd5b8051600110156118195760400190565b90602090818382031261009957825167ffffffffffffffff93848211610099570181601f820112156100995780519384116110a8578360051b90604051946118878584018761177f565b85528380860192820101928311610099578301905b8282106118aa575050505090565b8151815290830190830161189c565b9081518082526020808093019301915f5b8281106118d8575050505090565b83516001600160a01b0316855293810193928101926001016118ca565b9190820391821161190257565b634e487b7160e01b5f52601160045260245ffd5b90816020910312610099575180151581036100995790565b90816060910312610099578051916040602083015192015190565b3d15611983573d9067ffffffffffffffff82116110a85760405191611978601f8201601f19166020018461177f565b82523d5f602084013e565b606090565b91926080936119ad92979695978452602084015260a0604084015260a08301906118b9565b6001600160a01b0390951660608201520152565b5f80516020611ad983398151915260028154146119de5760029055565b604051633ee5aeb560e01b8152600490fd5b60405163a9059cbb60e01b5f9081526001600160a01b039384166004526024949094529260209060448180855af160015f5114811615611a4f575b8360405215611a3957505050565b635274afe760e01b835216600482015260249150fd5b6001811516611a6557813b15153d151616611a2b565b833d5f823e3d90fd5b6040516323b872dd60e01b5f9081526001600160a01b03938416600452938316602452604494909452909160209060648180855af160015f5114811615611ac2575b836040525f60605215611a3957505050565b6001811516611a6557813b15153d151616611ab056fe9b779b17422d0df92223018b32b4d1fa46e071723d6817e2486d003becc55f00a264697066735822122050e599e913138ae5750ae99d05adb1450a34317e62e724f0f3bdc2d1069d0cc864736f6c63430008180033","linkReferences":{}},"methodIdentifiers":{"associateTokens(address[])":"a1d4da15","router()":"f887ea40","zapIn(address,address,uint256,uint256,uint256,uint256)":"43ed1525","zapInHBAR(address,address,uint256,uint256,uint256)":"1cbc5390","zapOutHBAR(address,address,uint256,uint256,uint256,uint256)":"e97d6116"},"id":38}